:020000040800F2
:1000000078060020B5010008C5090008BD090008F0
:10001000C109000871020008D909000800000000A9
:10002000000000000000000000000000CD090008F2
:100030007502000800000000C9090008D109000885
:10004000CF010008CF010008CF010008CF01000850
:10005000CF010008CF010008CF010008CF01000840
:10006000CF010008CF010008CF010008CF01000830
:10007000CF010008CF010008CF010008CF01000820
:10008000CF010008CF010008CF010008CF01000810
:10009000CF010008CF010008CF010008CF01000800
:1000A000CF010008CF010008CF010008CF010008F0
:1000B000CF010008CF010008CF010008CF010008E0
:1000C000CF010008CF010008CF010008CF010008D0
:1000D000CF010008CF010008CF010008CF010008C0
:1000E000CF010008CF010008CF01000800F002F89E
:1000F00000F050F814A696E8000CB244B344DA4578
:1001000001D100F047F8BAE80F000FA696E83000DA
:10011000A5EB040504EB0607AAEB0704A7F101070A
:100120004FEA15154FEA3414A4F10104AC4201D38F
:1001300000F030F813F0010F18BFFB1A43F0010371
:1001400000F001F8DBE718474409000064090000EB
:10015000103A24BF78C878C1FAD8520724BF30C8F3
:1001600030C144BF04680C60704700007047000055
:100170000023002400250026103A28BF78C1FBD8B0
:10018000520728BF30C148BF0B6070471FB51FBD65
:1001900010B510BD00F031F81146FFF7F7FF00F081
:1001A0001DFC00F04FF803B4FFF7F2FF03BC00F0B2
:1001B00057F800000948804709480047FEE7FEE776
:1001C000FEE7FEE7FEE7FEE7FEE7FEE7FEE7FEE707
:1001D00004480549054A064B70470000D509000848
:1001E000ED0000087800002078060020780200204A
:1001F00078020020704770477047754600F02CF871
:10020000AE4605006946534620F00700854618B003
:1002100020B5FFF7DDFFBDE820404FF000064FF0AE
:1002200000074FF000084FF0000BAC46ACE8C009E7
:10023000ACE8C009ACE8C009ACE8C00921F007018E
:100240008D46704710B50446AFF300802046BDE8E8
:100250001040FFF7A8BF00000048704710000020C2
:1002600001491820ABBEFEE72600020070470000DF
:10027000FEE700007047000040F27000C2F200008C
:100280000068704740F2000040F27001C2F20000C6
:10029000C2F2000100780A6810440860704700004C
:1002A00080B542F20000C4F20200016841F0100182
:1002B0000160032000F07AF80F2000F005F800F04C
:1002C00027F8002080BD000070B540F20006C2F2A1
:1002D000000640F208013278C2F200014FF47A734E
:1002E0000968B3FBF2F20446B1FBF2F1084600F0F4
:1002F0004FFB0F2C4FF0010508D838B94FF0FF30F5
:1003000021460022002500F025F87460284670BDC3
:1003100082B041F21800C4F202000168022241F0EA
:1003200001010160016801F0010101910199416839
:1003300041F080514160406800F08050009000988A
:100340000420C4F20100016862F31A61016002B086
:100350007047000010B54EF60C5CCEF2000CDCF8D5
:100360000030C3F3022E8EF00704042C28BF0424AF
:10037000BEF103034FF0FF3E0EFA04F438BF002332
:10038000A14399400EFA03F39A43114300F00F0280
:1003900000F160430901043A03F564436244002814
:1003A00048BF02F10C03197010BD00004EF60C514D
:1003B000CEF200010A684FF6FF031A4060F30A22EA
:1003C00042F0806040F0FD7008607047002804BF74
:1003D000012070472DE9F04381B042F20008C4F2D9
:1003E00002080446D8F800000D4600F007008842D5
:1003F0000CD2D8F8000020F007002843C8F800000D
:10040000D8F8000000F00700A8426CD1206841F243
:1004100004098107C4F2020917D5410705D5D9F8A7
:10042000001041F4E061C9F80010010705D5D9F8C2
:10043000001041F46051C9F80010D9F80010A2680A
:1004400021F0F0011143C9F80010C00742D1D8F8DB
:10045000000000F00700A8420CD9D8F8000020F0F6
:1004600007002843C8F80000D8F8000000F0070093
:10047000A84238D12068410707D5D9F80010E268B2
:1004800021F4E0611143C9F80010000708D5D9F83C
:100490000000216920F4605040EAC100C9F8000062
:1004A000D9F8002002F00C00082841F20020C0F228
:1004B0007A0051D140F67C23C2F38341C0F6000399
:1004C000595CD2033CD440F60010C0F23D004843D2
:1004D00042E000BF606802280AD001282AD159F8FA
:1004E000041C890308D4012001B0BDE8F08300BFDB
:1004F00059F8041C8901F6D5D9F8001021F0030140
:100500000843C9F80000FFF7B7FE064641F28837F6
:10051000D9F80000616800F00C00B0EB810F96D0B4
:10052000FFF7AAFE801BB842F2D9032001B0BDE854
:10053000F08300BF59F8041C8907D4D5DCE700BF5D
:10054000D9F8002040F67A23C2F34042C0F60003F7
:100550009A5C4843B0FBF2F0D9F8001040F66A22EA
:10056000C1F30311C0F60002515C40F2080220FA08
:1005700001F140F20400C2F200000068C2F2000281
:100580001160FFF7A1FE002001B0BDE8F08300007C
:10059000002804BF012070472DE9F04182B00446D5
:1005A000007841F20006C007C4F202060CD0706861
:1005B00000F00C00042840F081803068800303D5EF
:1005C0006068002800F04E81207880071BD5706895
:1005D00010F00C0F09D0706800F00C00082840F0F3
:1005E0008B807068C00300F187803068800703D576
:1005F0002069012840F036813068616920F0F800F8
:1006000040EAC10030602078000713D4207840070A
:100610002CD4E569002D00F02081706800F00C00FA
:10062000082840F0AF80012D40F00C81012002B07D
:10063000BDE8F081A069002800F08C800020C4F2A1
:1006400042200121C0F88014FFF716FE054600BFC6
:10065000706A800700F1BA80FFF70EFE401B022887
:10066000F6D9032002B0BDE8F08100BFF0695FEA6F
:10067000C00808D4F06940F08050F061F06900F0E3
:1006800080500090009847F20007C4F200073868D5
:10069000C0054DD4386840F480703860FFF7ECFD39
:1006A000054600BF3868C00542D4FFF7E5FD401B92
:1006B0006428F7D9032002B0BDE8F081706800F02B
:1006C0000C00082803D17068C0033FF576AF60685E
:1006D000002800F00981B0F5A02F00F01D81B0F5D1
:1006E000803F00F01D81306820F480303060306839
:1006F00020F4802017E100BF2069002840F20000AC
:10070000C4F2422000F08C8001210160FFF7B4FDAB
:10071000054600BF306880073FF56EAFFFF7ACFDC0
:10072000401B0228F6D9032002B0BDE8F08100BFCB
:10073000E068002800F09A80052800F0B1800128C8
:1007400000F0B280306A20F001003062306A20F0A0
:100750000400ACE00020C4F242200021C0F8801464
:10076000FFF78AFD054600BF706A80077FF54EAF30
:10077000FFF782FD401B0228F6D9032002B0BDE836
:10078000F08100BF0027C4F2422700203866FFF73F
:1007900073FD022D05460DD13068800140F1D680F1
:1007A000FFF76AFD401B02284FF00300F4D902B0A6
:1007B000BDE8F081306880014FD5FFF75DFD401B3B
:1007C00002284FF00300F5D9F1E700BF40F208001E
:1007D000C2F20000006844F6D351C1F26201A0FBEE
:1007E0000101480A019000BF00BF0198411E002886
:1007F00001913FF40BAF00BF0198411E0028019109
:100800003FF404AF00BF0198411E002801913FF45E
:10081000FDAE00BF0198411E00280191E4D1F5E62C
:1008200000210160FFF728FD054600BF3068800702
:100830007FF5E9AEFFF720FD401B02284FF00300D3
:10084000F4D9B4E77068216A00F480328A4209D191
:10085000616A00F47010884204D1002002B0BDE843
:10086000F08100BF012002B0BDE8F081306A20F0C5
:1008700001003062306A20F004003062FFF7FCFCB7
:10088000054641F2883700BF306A800722D5FFF75E
:10089000F3FC401BB8424FF00300F5D987E700BFD7
:1008A000306A40F004003062306A40F0010030628B
:1008B000FFF7E2FC054641F2883700BF306A800747
:1008C00008D4FFF7D9FC401BB842F7D9032002B087
:1008D000BDE8F081B8F1000F3FF59BAEF06920F064
:1008E0008050F06195E600BF306820F480303060C1
:1008F000306820F480203060FFF7BEFC054600BF62
:10090000306880037FF560AEFFF7B6FC401B6428BB
:100910004FF00300F4D94AE7306840F4802030609B
:10092000306840F480303060FFF7A6FC054600BF19
:10093000306880033FF548AEFFF79EFC401B6428FB
:10094000F6D9032002B0BDE8F08100BF206AB0F5FF
:10095000803F05D17168A26821F4003111437160B4
:100960007168626A21F474111143084370600120B8
:100970003866FFF781FC0446306880013FF56DAFB3
:10098000FFF77AFC001B02284FF00300F4D90EE7B2
:10099000411E0020B0EB116F1CBF012070474EF2CA
:1009A0001002CEF2000251604EF62351CEF2000149
:1009B000F0230B700721906011607047FEE7000084
:1009C000FEE70000FEE700007047000070470000EF
:1009D000FFF758BC70470000FEE7000090B0FFF73B
:1009E0005FFC00240120CDE90B44CDE909440A90C5
:1009F00010200B904FF4601002250F9006A8CDE94F
:100A000007440695CDE90D54FFF7C2FD20B1EFF381
:100A1000108072B6FEE700BF0F20CDE901054FF44C
:100A20008060CDE9040401A802210394FFF7CEFC05
:100A300020B1EFF3108072B6FEE700BF41F218005C
:100A4000C4F20200016841F020010160016801F078
:100A5000200106910699016841F0040101600068D7
:100A600000F0040006900698FEE700000000000079
:100A7000000001020304060708090102020304053D
:100A8000060708090A0B0C0D0E0F1010B00A00081B
:100A9000000000201000000050010008C00A0008FB
:100AA000100000206806000070010008000000002F
:100AB00001000000100000000024F400000000000D
:04000005080000ED02
:00000001FF
